:020000040800F2
:10000000005000205D130008AD130008AD13000878
:10001000AD130008AD130008AD1300080000000088
:10002000000000000000000000000000AD13000808
:10003000AD13000800000000AD1300080113000814
:10004000AD130008AD130008AD130008AD13000890
:10005000AD130008AD130008C1070008B909000876
:10006000AD130008AD130008AD130008AD13000870
:10007000AD130008AD130008AD130008AD13000860
:10008000AD130008AD130008AD130008AD13000850
:10009000AD130008AD130008AD130008AD13000840
:1000A000AD130008AD130008AD130008AD13000830
:1000B000AD130008AD130008AD130008AD13000820
:1000C000AD130008AD130008AD130008AD13000810
:1000D000AD130008AD130008AD130008AD13000800
:1000E000AD130008AD13000800000000AD130008B8
:1000F000AD130008AD130008AD130008AD130008E0
:10010000AD130008AD130008AD130008AD130008CF
:10011000AD130008AD130008AD130008AD130008BF
:10012000AD130008AD130008AD130008AD130008AF
:1001300010B5054C237833B9044B13B10448AFF321
:1001400000800123237010BD040000200000000087
:10015000F813000808B5034B1BB103490348AFF37C
:10016000008008BD0000000008000020F81300080F
:1001700080B485B000AF78600023FB6003E000BF6F
:10018000FB680133FB607B684FF4FA7202FB03F3F8
:10019000FA689A42F3D300BF00BF1437BD4680BC53
:1001A0007047000080B500AF1E4B9B681D4A43F0AE
:1001B000010393601420FFF7DBFF1A4B9B68194A79
:1001C00043F400239360174B9B68164A43F40033B3
:1001D0009360144B9B68134A43F480239360114B44
:1001E0009B68104A43F4801393600E4B9B680D4A42
:1001F00023F4006393600B4B9B680A4A23F00203CD
:100200009360084B9B68074A43F00403936000BF68
:10021000044B9B689B0803F00103002BF8D100BF3F
:1002200000BF80BD0024014080B483B000AF03460E
:10023000FB71FB79092B1DD8194B5B6B184A23F016
:1002400001035363164B5B6B154A23F002035363A0
:10025000134B5B6B124A23F004035363104B5B6B2D
:100260000F4A23F0080353630D4B5B6B0C4A23F0DA
:10027000100353630A4B9B68094A43F4800393605D
:1002800000BF074B1B685B0803F00103012BF8D18B
:10029000034BDB6C9BB218460C37BD4680BC7047E5
:1002A0000024014080B483B000AF0346FB710B46CD
:1002B000BB7113467B71FB79022B00F2B680BB79D0
:1002C0000F2B00F2B2807B790F2B00F2AE80BB794E
:1002D000072B52D8FB79022B37D0022B00F3A680D4
:1002E000002B02D0012B18D0A0E0534B1B68BA7929
:1002F00092000F2101FA02F2D24311464E4A0B40FE
:1003000013604D4B1B687979BA79920001FA02F2B9
:100310001146494A0B43136088E0484B1B68BA7981
:1003200092000F2101FA02F2D2431146434A0B40D8
:100330001360424B1B687979BA79920001FA02F294
:1003400011463E4A0B43136070E03D4B1B68BA797F
:1003500092000F2101FA02F2D2431146384A0B40B3
:100360001360374B1B687979BA79920001FA02F26F
:100370001146334A0B43136058E0BB790F2B54D816
:10038000BB79083BBB71FB79022B36D0022B4DDCCD
:10039000002B02D0012B18D048E02A4B1B68BA79F9
:1003A00092000F2101FA02F2D2431146254A0B4076
:1003B0001360244B1B687979BA79920001FA02F232
:1003C0001146204A0B43136030E01F4B1B68BA797B
:1003D00092000F2101FA02F2D24311461A4A0B4051
:1003E0001360194B1B687979BA79920001FA02F20D
:1003F0001146154A0B43136018E0144B1B68BA7979
:1004000092000F2101FA02F2D24311460F4A0B402B
:1004100013600E4B1B687979BA79920001FA02F2E7
:1004200011460A4A0B43136000E000BF00BF0C37BF
:10043000BD4680BC704700BF00080140000C014071
:100440000010014004080140040C01400410014068
:1004500080B483B000AF0346FB710B46BB711346FB
:100460007B71FB79022B61D8BB790F2B5ED87B792E
:10047000002B2DD1FB79022B1ED0022B57DC002B39
:1004800002D0012B0CD052E02B4B1B68BA79012112
:1004900001FA02F2D2431146274A0B40136046E0AC
:1004A000264B1B68BA79012101FA02F2D2431146A8
:1004B000224A0B4013603AE0214B1B68BA790121B4
:1004C00001FA02F2D24311461D4A0B4013602EE09E
:1004D0007B79012B2AD1FB79022B1CD0022B26DC45
:1004E000002B02D0012B0BD021E0134B1B68BA79F3
:1004F000012101FA02F211460F4A0B43136016E084
:100500000E4B1B68BA79012101FA02F211460B4A1F
:100510000B4313600BE00A4B1B68BA79012101FA07
:1005200002F21146064A0B43136000E000BF00BF11
:100530000C37BD4680BC70470C0801400C0C0140D4
:100540000C10014080B483B000AF03463A60FB71E9
:100550000B46BB71FB79022B30D8BB790F2B2DD802
:10056000FB79022B1ED0022B29DC002B02D0012BA1
:100570000CD024E0144B1A68BB7922FA03F3DBB2E7
:1005800003F00103DAB23B681A7018E00F4B1A68E7
:10059000BB7922FA03F3DBB203F00103DAB23B6862
:1005A0001A700CE00A4B1A68BB7922FA03F3DBB22B
:1005B00003F00103DAB23B681A7000E000BF00BF2D
:1005C0000C37BD4680BC704708080140080C01404C
:1005D0000810014080B483B000AF03460A46FB71A7
:1005E0001346BB71FB79022B1CD0022B25DC002BA0
:1005F00002D0012B0BD020E0124B1B68BA790121ED
:1006000001FA02F211460F4A4B40136015E00E4BFF
:100610001B68BA79012101FA02F211460A4A4B40DD
:1006200013600AE0094B1B68BA79012101FA02F252
:100630001146064A4B40136000BF00BF0C37BD4651
:1006400080BC70470C0801400C0C01400C100140AC
:1006500080B500AF094A06210120FFF773FF074B61
:100660001B78002B07D109210020FFF7B3FF0A21D7
:100670000020FFF7AFFF00BF80BD00BF22000020B9
:1006800080B500AF1A4B1B78452B23D8184B1B782D
:10069000222B1FD9174A0C210020FFF753FF164ABF
:1006A0000F210020FFF74EFF124B1B78002B06D1C5
:1006B0000F4B1B780133DAB20D4B1A700EE00E4B64
:1006C0001B78002B0AD10A4B1B78013BDAB2084B8E
:1006D0001A7003E0064B23221A7000E000BF044B9F
:1006E0001B78184600F056FA014B1B78184680BD5F
:1006F00000000020200000202100002080B500AF75
:1007000000F086F90221022000F09EF90421022067
:1007100000F09AF90321022000F096F9002000F081
:10072000D5F90921022000F08FF9002200210020D4
:10073000FFF7B8FDFFF736FD00F04CF800F0EAF9DE
:1007400000F044F901220A210120FFF7ABFD01224C
:1007500000210120FFF7A6FD012201210120FFF762
:10076000A1FD01220D210220FFF79CFD01220E2197
:100770000220FFF797FD01220F210220FFF792FDD3
:10078000FFF766FFFFF77CFF03461A460B4B1A7014
:100790000020FFF749FD03461A46084B1B789BB221
:1007A0009A4205D801220A210120FFF751FEE7E70E
:1007B00000220A210120FFF74BFEE1E72300002081
:1007C00080B500AF024B1B68984700BF80BD00BFDB
:1007D0002400002080B500AF022201210020FFF795
:1007E00061FD022202210020FFF75CFD02220621AA
:1007F0000020FFF757FD022205210020FFF752FDE0
:10080000022204210020FFF74DFD022203210020D7
:10081000FFF748FD2320FFF7ABFC00220121002059
:10082000FFF716FE002202210020FFF711FE002232
:1008300006210020FFF70CFE002205210020FFF713
:1008400007FE012204210020FFF702FE00220321FF
:100850000020FFF7FDFD012202210020FFF7F8FD37
:100860000120FFF785FC002202210020FFF7F0FDA8
:100870000520FFF77DFC282000F00BF80E2000F08B
:1008800008F8012000F005F8062000F002F800BF8B
:1008900080BD80B582B000AF0346FB71002201210C
:1008A0000020FFF7D5FDFB79184600F004F800BFE3
:1008B0000837BD4680BD80B582B000AF0346FB71EE
:1008C000002202210020FFF7C3FDFB791B09DBB2E8
:1008D00003F00103DBB21A4603210020FFF7B8FD45
:1008E000FB795B09DBB203F00103DBB21A4604219A
:1008F0000020FFF7ADFDFB799B09DBB203F001039C
:10090000DBB21A4605210020FFF7A2FDFB79DB09C7
:10091000DBB21A4606210020FFF79AFD01220221D0
:100920000020FFF795FD0120FFF722FC00220221A5
:100930000020FFF78DFD0520FFF71AFCFB7903F07F
:100940000103DBB21A4603210020FFF781FDFB798A
:100950005B08DBB203F00103DBB21A46042100207E
:10096000FFF776FDFB799B08DBB203F00103DBB2F6
:100970001A4605210020FFF76BFDFB79DB08DBB28F
:1009800003F00103DBB21A4606210020FFF760FDE9
:10099000012202210020FFF75BFD0120FFF7E8FBA9
:1009A000002202210020FFF753FD0520FFF7E0FBA6
:1009B00000BF0837BD4680BD80B500AF024B1B6845
:1009C000984700BF80BD00BF2800002080B500AF61
:1009D00008220C210020FFF765FC01220C210020D9
:1009E000FFF736FD08220F210020FFF75BFC0122F4
:1009F0000F210020FFF72CFD082206210120FFF720
:100A000051FC012201210120FFF722FD00BF80BD22
:100A100080B400AF0A4B1B68094A43F0010313601E
:100A2000084B1B68074A23F001031360054B1B6842
:100A3000044A23F00203136000BFBD4680BC704728
:100A4000001002400410024080B483B000AF03469F
:100A50000A46FB711346BB71BB791F2B2AD8FB7961
:100A6000022B1CD0022B25DC002B02D0012B0BD03B
:100A700020E0134B1B68BA79012101FA02F21146FA
:100A80000F4A0B43136015E00E4B1B68BA79012126
:100A900001FA02F211460B4A0B4313600AE00A4BBB
:100AA0001B68BA79012101FA02F21146064A0B438A
:100AB000136000BF00BF0C37BD4680BC704700BF4D
:100AC000141002401C1002401810024080B483B081
:100AD00000AF0346FB71FB79032B13D80C4B1B684B
:100AE0000B4A23F480431360094B1B68084A23F424
:100AF00000431360064B1B68FA7992031146044ABF
:100B00000B43136000BF0C37BD4680BC704700BF6D
:100B10000410024080B500AF022201210020FFF73F
:100B2000C1FB022202210020FFF7BCFB02220321AD
:100B30000020FFF7B7FB022204210020FFF7B2FBE1
:100B4000022205210020FFF7ADFB02220621002032
:100B5000FFF7A8FB022207210020FFF7A3FB0222D8
:100B600008210020FFF79EFB022209210020FFF749
:100B700099FB02220A210020FFF794FB00220921A1
:100B80000020FFF765FC00220A210020FFF760FC2F
:100B900000BF80BD80B584B000AF0346FB71FB7918
:100BA000632B00F2A883FA79CF4BA3FB0213D90879
:100BB0000B469B000B445B00D31AFB72FB79CA4ABD
:100BC000A2FB0323DB08BB720023FB608EE3FB7AEE
:100BD000092B00F2B48101A252F823F0050C0008A1
:100BE000570C0008A90C0008FB0C00084D0D00086C
:100BF0009F0D0008F10D0008430E0008950E000837
:100C0000ED0E0008012201210020FFF721FC012246
:100C100002210020FFF71CFC012203210020FFF726
:100C200017FC012204210020FFF712FC01220521FC
:100C30000020FFF70DFC012206210020FFF708FC31
:100C4000002207210020FFF703FC002208210020DA
:100C5000FFF7FEFB73E1002201210020FFF7F8FB04
:100C6000012202210020FFF7F3FB012203210020D3
:100C7000FFF7EEFB002204210020FFF7E9FB002232
:100C800005210020FFF7E4FB002206210020FFF7EA
:100C9000DFFB002207210020FFF7DAFB00220821FA
:100CA0000020FFF7D5FB4AE1012201210020FFF7D8
:100CB000CFFB012202210020FFF7CAFB0022032103
:100CC0000020FFF7C5FB012204210020FFF7C0FB35
:100CD000012205210020FFF7BBFB00220621002096
:100CE000FFF7B6FB012207210020FFF7B1FB00222E
:100CF00008210020FFF7ACFB21E1012201210020A7
:100D0000FFF7A6FB012202210020FFF7A1FB012231
:100D100003210020FFF79CFB012204210020FFF7A4
:100D200097FB002205210020FFF792FB00220621FD
:100D30000020FFF78DFB012207210020FFF788FB31
:100D4000002208210020FFF783FBF8E000220121A8
:100D50000020FFF77DFB012202210020FFF778FB36
:100D6000012203210020FFF773FB00220421002051
:100D7000FFF76EFB002205210020FFF769FB01222F
:100D800006210020FFF764FB012207210020FFF766
:100D90005FFB002208210020FFF75AFBCFE0012271
:100DA00001210020FFF754FB002202210020FFF761
:100DB0004FFB012203210020FFF74AFB01220421FF
:100DC0000020FFF745FB002205210020FFF740FB34
:100DD000012206210020FFF73BFB01220721002012
:100DE000FFF736FB002208210020FFF731FBA6E0C9
:100DF000012201210020FFF72BFB0022022100200D
:100E0000FFF726FB012203210020FFF721FB01222F
:100E100004210020FFF71CFB012205210020FFF721
:100E200017FB012206210020FFF712FB01220721F8
:100E30000020FFF70DFB002208210020FFF708FB30
:100E40007DE0012201210020FFF702FB01220221A7
:100E50000020FFF7FDFA012203210020FFF7F8FA36
:100E6000002204210020FFF7F3FA002205210020D0
:100E7000FFF7EEFA002206210020FFF7E9FA002230
:100E800007210020FFF7E4FA002208210020FFF7E5
:100E9000DFFA54E0012201210020FFF7D9FA0122F4
:100EA00002210020FFF7D4FA012203210020FFF7DE
:100EB000CFFA012204210020FFF7CAFA01220521FE
:100EC0000020FFF7C5FA012206210020FFF7C0FA33
:100ED000012207210020FFF7BBFA00220821002091
:100EE000FFF7B6FA2BE000BFCDCCCCCC012201211C
:100EF0000020FFF7ADFA012202210020FFF7A8FA37
:100F0000012203210020FFF7A3FA0122042100207F
:100F1000FFF79EFA002205210020FFF799FA01222F
:100F200006210020FFF794FA012207210020FFF795
:100F30008FFA002208210020FFF78AFA00BF012261
:100F400009210020FFF784FA00220A210020FFF780
:100F50007FFA0320FFF70CF9002209210020FFF798
:100F600077FABB7A092B00F2B18101A252F823F083
:100F7000990F0008EB0F00083D1000088F100008C3
:100F8000E11000083311000885110008D71100088E
:100F9000291200087B120008012201210020FFF71E
:100FA00057FA012202210020FFF752FA0122032101
:100FB0000020FFF74DFA012204210020FFF748FA34
:100FC000012205210020FFF743FA0122062100201B
:100FD000FFF73EFA002207210020FFF739FA00222E
:100FE00008210020FFF734FA70E1002201210020DF
:100FF000FFF72EFA012202210020FFF729FA012231
:1010000003210020FFF724FA002204210020FFF72B
:101010001FFA002205210020FFF71AFA00220621FC
:101020000020FFF715FA002207210020FFF710FA31
:10103000002208210020FFF70BFA47E101220121DD
:101040000020FFF705FA012202210020FFF700FA35
:10105000002203210020FFF7FBF9012204210020D8
:10106000FFF7F6F9012205210020FFF7F1F9002230
:1010700006210020FFF7ECF9012207210020FFF7ED
:10108000E7F9002208210020FFF7E2F91EE1012222
:1010900001210020FFF7DCF9012202210020FFF7E7
:1010A000D7F9012203210020FFF7D2F90122042100
:1010B0000020FFF7CDF9002205210020FFF7C8F935
:1010C000002206210020FFF7C3F90122072100209A
:1010D000FFF7BEF9002208210020FFF7B9F9F5E07B
:1010E000002201210020FFF7B3F901220221002094
:1010F000FFF7AEF9012203210020FFF7A9F9002232
:1011000004210020FFF7A4F9002205210020FFF7A9
:101110009FF9012206210020FFF79AF901220721F9
:101120000020FFF795F9002208210020FFF790F931
:10113000CCE0012201210020FFF78AF900220221E0
:101140000020FFF785F9012203210020FFF780F935
:10115000012204210020FFF77BF900220521002055
:10116000FFF776F9012206210020FFF771F901222D
:1011700007210020FFF76CF9002208210020FFF76B
:1011800067F9A3E0012201210020FFF761F90022A5
:1011900002210020FFF75CF9012203210020FFF764
:1011A00057F9012204210020FFF752F901220521FD
:1011B0000020FFF74DF9012206210020FFF748F932
:1011C000012207210020FFF743F900220821002017
:1011D000FFF73EF97AE0012201210020FFF738F9FC
:1011E000012202210020FFF733F901220321002010
:1011F000FFF72EF9002204210020FFF729F9002231
:1012000005210020FFF724F9002206210020FFF726
:101210001FF9002207210020FFF71AF900220821F8
:101220000020FFF715F951E0012201210020FFF70E
:101230000FF9012202210020FFF70AF90122032100
:101240000020FFF705F9012204210020FFF700F933
:10125000012205210020FFF7FBF8012206210020D2
:10126000FFF7F6F8012207210020FFF7F1F800222E
:1012700008210020FFF7ECF828E0012201210020DE
:10128000FFF7E6F8012202210020FFF7E1F8012232
:1012900003210020FFF7DCF8012204210020FFF7E2
:1012A000D7F8002205210020FFF7D2F801220621FD
:1012B0000020FFF7CDF8012207210020FFF7C8F832
:1012C000002208210020FFF7C3F800BF01220A21F5
:1012D0000020FFF7BDF80320FEF74AFF00220A2195
:1012E0000020FFF7B5F8FB680133FB60FB68132BA8
:1012F0007FF66DAC00E000BF1037BD4680BD00BF7B
:1013000080B582B000AF124B1B78022B11D1114B6C
:101310001B68104A23F0020313600E4B1B680D4A32
:1013200023F0010313600B4B00225A60094B00228B
:101330009A60094B1B689847064B1B681B0CDBB275
:1013400003F00103FB7100BF0837BD4680BD00BF3D
:101350003000002010E000E02C0000200D48854601
:10136000AFF300800C480D490D4A002302E0D45829
:10137000C4500433C4188C42F9D30A4A0A4C0023DF
:1013800001E013600432A242FBD300F011F8FFF732
:10139000B5F9FEE700500020000000200400002006
:1013A000181400080400002034000020FEE70000AC
:1013B00070B500260C4D0D4C641BA410A64209D13B
:1013C00000F01AF800260A4D0A4C641BA410A6422D
:1013D00005D170BD55F8043B98470136EEE755F846
:1013E000043B98470136F2E7101400081014000877
:1013F0001014000814140008F8B500BFF8BC08BCAD
:101400009E467047F8B500BFF8BC08BC9E467047C2
:04141000550100087A
:04141400310100089A
:04141800410000008F
:040000050800135D7F
:00000001FF
